S01600004672656552544F532D54657374312E7372656346
S11300000C943E000C945B000C945B000C945B001D
S11300100C945B000C945B000C945B000C945B00F0
S11300200C945B000C945B000C945B000C945B00E0
S11300300C945B000C94E9030C945B000C945B003F
S11300400C9436010C945B000C945B000C945B00E4
S11300500C94DF040C941D050C945B000C945B0061
S11300600C945B000C945B000C945B000C945B00A0
S11300700C9465050C94A3050C945B0011241FBE1D
S1130080CFEFD8E0DEBFCDBF11E0A0E0B1E0E8E7FC
S1130090FEE102C005900D92AE34B107D9F725E018
S11300A0AEE4B1E001C01D92AE3EB207E1F70E949A
S11300B0E8000C943A0F0C940000CF93DF931F9246
S11300C0CDB7DEB762E070E080E090E00E94150CEE
S11300D020E048EE53E0BE016F5F7F4F80914F01F7
S11300E0909150010E941408882331F061E0CE0100
S11300F001960E945F01ECCF62E08AE091E00E94E9
S11301005F01E6CF61E070E080E090E00E94150CB2
S113011040E061E08EE10E94EE06909350018093EE
S11301204F010E941F0181E00E94C007E12CF12CC5
S113013000E020E030E045E550E06DE071E08DE561
S113014090E00E9443096FE085E191E00E945F0125
S113015088EE93E00E94C20BFBCF5A9A08955D9AF1
S11301605D985C9A5C985A980895809582B985B197
S1130170836085B985B193709095892385B9089575
S1130180CF93C0914E01C1110CC00E94AD0081E01B
S113019090E00E94B5000E94AF0081E080934E0180
S11301A014C0EC2FF0E0EE0FFF1FE35DFE4F8081E3
S11301B091810E94B5000E94AF00CF5FCE3018F449
S11301C0C0934E0102C010924E01CF91089508953C
S11301D00E9468015E98E12CF12C00E020E030E000
S11301E045E550E065E271E082E890E00E94430951
S11301F080EC90E00E94240178940E94580AFFCF7A
S1130200CF93DF9300D0CDB7DEB76A838091990195
S113021090919A01009771F0198220E0AE014F5F2E
S11302205F4FBE016E5F7F4F0E94DA0789818111A3
S11302300E9434030F900F90DF91CF910895909313
S11302409A0180939901089590939801809397015E
S11302508AE087BD84B5826084BDEEE6F0E08081EB
S11302608260808385B5856085BD08951F920F9255
S11302700FB60F9211242F933F934F935F936F9375
S11302807F938F939F93AF93BF93EF93FF93E091EB
S11302909701F0919801309709F00995FF91EF913A
S11302A0BF91AF919F918F917F916F915F914F918A
S11302B03F912F910F900FBE0F901F901895462FCE
S11302C0BC0180919B0190919C010E949C04089523
S11302D08F929F92AF92BF92CF92DF92EF920F9341
S11302E084E791E00E94C10181E591E00E94C1018F
S11302F00F2EF0E08F2EF1E09F2EF02D0F2EF1E562
S1130300AF2EF1E0BF2EF02D0F2EF4E7CF2EF1E04B
S1130310DF2EF02DE12C00E023E040E052EC61E020
S113032070E080E00E94220490939C0180939B01E2
S113033088B1836C88B95B9A8AB184678AB95E9AFA
S113034081B18FEF81B984B1836084B984B18C6346
S113035084B90F91EF90DF90CF90BF90AF909F90B2
S11303608F90089595B1937C95B925B134E0839F1E
S1130370C0011124822B85B9089585B1837C85B988
S11303800895FC0110A211A212A20895FC0182A1F9
S11303908823D9F081A1DF01A80FB11D8C91DB0165
S11303A08C9321A130E02F5F3F4F2F71307833239E
S11303B034F421503109206E3F6F2F5F3F4F21A34A
S11303C082A1815082A380E0089581E00895FC0118
S11303D042A14032B8F420A130E0E20FF31F608361
S11303E02F5F3F4F2F713078332334F4215031097C
S11303F0206E3F6F2F5F3F4FFC0120A34F5F42A34E
S113040080E0089582E00895FC010396928381833D
S11304102FEF3FEF348323839683858390878783ED
S113042010820895FC01118610860895CF93DF93FE
S11304309C01FB01DC011196CD91DC911297D383D1
S1130440C2838C819D81958384838C819D81DC0111
S113045013967C936E9312977D836C8331872087E8
S1130460F90180818F5F8083DF91CF910895CF93CD
S1130470DF93EB01488159814F3F2FEF520721F45D
S1130480FC01A781B0850DC0DC01139601C0DF011A
S11304901296ED91FC9113972081318142175307F5
S11304A0B0F71296ED91FC911397FB83EA83D58301
S11304B0C483BD83AC831396DC93CE931297998740
S11304C08887FC0120812F5F2083DF91CF910895DD
S11304D0CF93DF93FC01A085B185C281D381848150
S11304E095819D838C83C481D581828193819B83F3
S11304F08A8311968D919C911297E817F90731F42C
S11305008481958112969C938E93119711861086FF
S11305108C9181508C93DF91CF91089531E1FC014E
S11305203083319722E220833197A3E3A08331976C
S113053060833197708331971082319760E86083CC
S113054031971082319762E06083319763E0608372
S1130550319764E06083319765E06083319766E0AA
S11305606083319767E06083319768E060833197F7
S113057069E06083319760E160833197308331971C
S113058032E13083319733E13083319734E1308382
S1130590319735E13083319736E13083319737E154
S11305A03083319738E13083319739E130833197A3
S11305B030E23083319731E23083319720833197B1
S11305C023E220833197408331975083319726E289
S11305D02083319727E22083319728E220833197C3
S11305E029E22083319720E32083319721E320837C
S11305F0869708951092890085EE809388008BE099
S113060080938100EFE6F0E0808182608083A09196
S1130610E805B091E905CD91CDBFDD91DEBFFF9135
S1130620EF91DF91CF91BF91AF919F918F917F9186
S11306306F915F914F913F912F911F910F91FF9077
S1130640EF90DF90CF90BF90AF909F908F907F906E
S11306506F905F904F903F902F901F900F900FBE20
S11306600F90089581E008950F920FB6F8940F92B9
S11306701F9211242F923F924F925F926F927F921A
S11306808F929F92AF92BF92CF92DF92EF92FF929E
S11306900F931F932F933F934F935F936F937F9386
S11306A08F939F93AF93BF93CF93DF93EF93FF9376
S11306B0A091E805B091E9050DB60D920EB60D9224
S11306C00E94240CA091E805B091E905CD91CDBF1D
S11306D0DD91DEBFFF91EF91DF91CF91BF91AF919B
S11306E09F918F917F916F915F914F913F912F9146
S11306F01F910F91FF90EF90DF90CF90BF90AF903C
S11307009F908F907F906F905F904F903F902F902D
S11307101F900F900FBE0F9008950F920FB6F8948C
S11307200F921F9211242F923F924F925F926F92D9
S11307307F928F929F92AF92BF92CF92DF92EF926D
S1130740FF920F931F932F933F934F935F936F9356
S11307507F938F939F93AF93BF93CF93DF93EF9345
S1130760FF93A091E805B091E9050DB60D920EB680
S11307700D920E94880A81110E94240CA091E80520
S1130780B091E905CD91CDBFDD91DEBFFF91EF9131
S1130790DF91CF91BF91AF919F918F917F916F9195
S11307A05F914F913F912F911F910F91FF90EF9087
S11307B0DF90CF90BF90AF909F908F907F906F907D
S11307C05F904F903F902F901F900F900FBE0F900F
S11307D008950E948D031895CF93DF93EC010E9436
S11307E0820A80919D0190919E01892B31F482EAC5
S11307F091E090939E0180939D0120919F013091FF
S1130800A001C9018C0F9D1F873E43E0940770F43B
S11308102817390770F4C0919D01D0919E01C20F31
S1130820D31F9093A00180939F0105C0C0E0D0E046
S113083002C0C0E0D0E00E94430BCE01DF91CF9113
S1130840089508954F925F926F927F928F929F9234
S1130850AF92BF92CF92DF92FF920F931F93CF93E9
S1130860DF93CDB7DEB7F82E2A013B0188E090E094
S11308700E94090E8C018F2D90E0880F991FFC01B6
S1130880E757FA4F11830083FC01EA5FFE4F808132
S11308909181D80111969C938E931396BC92AE923B
S11308A012971596DC92CE92149717969C928E927C
S11308B01697FFB6F894ED91FC91119736978081C5
S11308C082608083CD90DC90D301C201880F991F90
S11308D0AA1FBB1F880F991FAA1FBB1F9C01AD0134
S11308E0220F331F441F551F60E070E081EE90E03B
S11308F00E94E70D2150F60132972083D801ED9133
S1130900FC911197359788E98083ED91FC91349798
S113091086E08083FFBEC801DF91CF911F910F91C4
S1130920FF90DF90CF90BF90AF909F908F907F907B
S11309306F905F904F900895EF92FF920F931F93E3
S1130940CF93DF93FC01A281B381109779F0E42F58
S1130950F0E092965C9120E230E0251B31092E17DD
S11309603F071CF17C01411104C016C04230F8F469
S1130970F9CFEB014150042F10E00F5F1F4F060F1A
S1130980171F6991D70112968D919C9113970E941C
S1130990E701C017D107A9F7D701ED91FC9135976D
S11309A080818062808380E003C082E001C082E0B5
S11309B0DF91CF911F910F91FF90EF9008951F92B7
S11309C00F920FB60F9211242F933F934F935F937F
S11309D06F937F938F939F93AF93BF93CF93EF9333
S11309E0FF93E0918905F0918A053097A1F0C091B9
S11309F0C6006C2F848195810E94E701809189054E
S1130A0090918A05DC011696ED91FC911797309729
S1130A1011F06C2F0995FF91EF91CF91BF91AF9198
S1130A209F918F917F916F915F914F913F912F9102
S1130A300F900FBE0F901F9018951F920F920FB634
S1130A400F9211242F933F934F935F936F937F9350
S1130A508F939F93AF93BF93EF93FF93CF93DF93C2
S1130A601F92CDB7DEB7E0918905F0918A053097E2
S1130A7099F0BE016F5F7F4F828193810E94C6010E
S1130A80811104C089818093C6000BC0E1ECF0E0C1
S1130A9080818F7D808305C0E1ECF0E080818F7DD3
S1130AA080830F90DF91CF91FF91EF91BF91AF9130
S1130AB09F918F917F916F915F914F913F912F9172
S1130AC00F900FBE0F901F9018951F920F920FB6A4
S1130AD00F9211242F933F934F935F936F937F93C0
S1130AE08F939F93AF93BF93CF93EF93FF93E09133
S1130AF08B05F0918C053097A1F0C091CE006C2F3E
S1130B00848195810E94E70180918B0590918C05E9
S1130B10DC011696ED91FC911797309711F06C2F2C
S1130B200995FF91EF91CF91BF91AF919F918F91D3
S1130B307F916F915F914F913F912F910F900FBED5
S1130B400F901F9018951F920F920FB60F921124B9
S1130B502F933F934F935F936F937F938F939F93C1
S1130B60AF93BF93EF93FF93CF93DF931F92CDB7D0
S1130B70DEB7E0918B05F0918C05309799F0BE01BA
S1130B806F5F7F4F828193810E94C601811104C0EF
S1130B9089818093CE000BC0E9ECF0E080818F7DE9
S1130BA0808305C0E9ECF0E080818F7D80830F9025
S1130BB0DF91CF91FF91EF91BF91AF919F918F9171
S1130BC07F916F915F914F913F912F910F900FBE45
S1130BD00F901F9018950F931F93CF93DF93EC0101
S1130BE0042F1A8D4C8D41110CC088819981892B59
S1130BF009F042C08A819B810E94950D1B821A8252
S1130C0042C0011117C050E08C819D810E942A0FBF
S1130C102C8D8C819D81820F911D9D838C832A81D3
S1130C203B818217930750F1888199819D838C833E
S1130C3080E029C050E08E819F810E942A0F8C8D14
S1130C4090E09195819591092E813F81280F391F5C
S1130C503F832E83488159812417350730F42A8134
S1130C603B81820F931F9F838E83023049F41123AB
S1130C7049F0115080E007C080E005C080E003C067
S1130C8080E001C080E01F5F1A8FDF91CF911F9138
S1130C900F910895FC01448D4423A9F050E026816E
S1130CA03781240F351F3783268382819381281748
S1130CB0390720F08081918197838683CB016681F7
S1130CC077810E942A0F0895EF92FF920F931F934A
S1130CD0CF938C010FB6F8940F92FC01C68D1C16AD
S1130CE0ACF48189811106C011C0F8018189811198
S1130CF005C00CC07801F1E1EF0EF11CC7010E94A0
S1130D00AA0C81110E942F0DC15079F78FEFF801C1
S1130D10868F0F900FBE0FB6F8940F92C58D1C16D8
S1130D20ACF48085811106C011C0F8018085811161
S1130D3005C00CC07801F8E0EF0EF11CC7010E9459
S1130D40AA0C81110E942F0DC15079F78FEFF80181
S1130D50858F0F900FBECF911F910F91FF90EF9051
S1130D600895CF93DF93EC010FB6F8940F92488166
S1130D7059812C8D30E07B8D729FC001739F900D43
S1130D801124FA01E80FF91FFB83EA831A8E5D83AD
S1130D904C83821B930B840F951F9F838E838FEF4D
S1130DA08D8F8E8F61110CC08885882389F0CE01C8
S1130DB008960E94AA0C882359F00E94340308C0A4
S1130DC0CE0108960E940402CE0141960E940402BC
S1130DD00F900FBE81E0DF91CF910895FF920F93A2
S1130DE01F93CF93DF93082F162FF42E6623C9F099
S1130DF0869FC001112481960E94EC03EC010097A8
S1130E0049F416C00B8F1C8F61E0CE010E94B1061D
S1130E10F8A20EC0819699838883F4CFD983C883BE
S1130E20F1CF81E290E00E94EC03EC01892BB1F751
S1130E30CE01DF91CF911F910F91FF9008959F9262
S1130E40AF92BF92CF92DF92EF92FF920F931F93D4
S1130E50CF93DF9300D000D01F92CDB7DEB78C01C3
S1130E606B015D834C83A22EB12C992493947C0155
S1130E7088E0E80EF11C0FB6F8940F92F801928DF9
S1130E80838D981718F0F2E0AF1219C04A2DB601FD
S1130E90C8010E94EB05F8019189992349F0C80122
S1130EA041960E94AA0C882331F00E94340303C0A7
S1130EB081110E9434030F900FBE81E050C08C81D9
S1130EC09D81892B21F40F900FBE80E048C0B110A2
S1130ED005C0CE0101960E94F20CB92C0F900FBEF2
S1130EE00E94820A0FB6F8940F92F801858D8F3F05
S1130EF009F4158EF801868D8F3F09F4168E0F9034
S1130F000FBEBE016C5F7F4FCE0101960E94FD0CA7
S1130F1081111FC00FB6F8940F92F801928D0F90B3
S1130F200FBE838D98130FC06C817D81C7010E9411
S1130F30980CC8010E9464060E94430B81119BCF48
S1130F400E94340398CFC8010E9464060E94430B98
S1130F5092CFC8010E9464060E94430B80E00F9068
S1130F600F900F900F900F90DF91CF911F910F91E1
S1130F70FF90EF90DF90CF90BF90AF909F90089537
S1130F80CF93DF93482F60E081E00E94EE06EC01EE
S1130F90009761F01B821A82198218821E8220E057
S1130FA040E050E060E070E00E941F07CE01DF9156
S1130FB0CF910895EF92FF920F931F93CF93DF93F6
S1130FC08A01FC01528D338D531710F02230F1F455
S1130FD0422F7801EC011E8D0E94EB051F3F81F426
S1130FE089898823A9F0CE0141960E94AA0C8823FE
S1130FF089F0E114F10481F081E0F70180830DC0F0
S1131000FF24F394F10EFE8E81E007C080E005C05A
S113101081E003C081E001C081E0DF91CF911F91A5
S11310200F91FF90EF9008958F929F92AF92BF928D
S1131030CF92DF92EF92FF920F931F93CF93DF93A0
S113104000D000D01F92CDB7DEB78C015B015D8369
S11310504C83822EE12C992493946C0181E1C80E77
S1131060D11C0FB6F8940F92F801F28CFF2091F185
S1131070C680D780B501C8010E944A06811019C0F4
S1131080FA94F801F28E80819181892B29F40E94CF
S1131090D50DF80193838283F80180858823B1F00C
S11310A0C80108960E94AA0C882381F00E94340388
S11310B00DC0F801D782C6828189882339F0C8011E
S11310C041960E94AA0C81110E9434030F900FBE16
S11310D081E064C08C819D81892B21F40F900FBE27
S11310E080E05CC0E11005C0CE0101960E94F20CC4
S11310F0E92C0F900FBE0E94820A0FB6F8940F924B
S1131100F801858D8F3F09F4158EF801868D8F3F88
S113111009F4168E0F900FBEBE016C5F7F4FCE0197
S113112001960E94FD0C81112BC00FB6F8940F920A
S1131130F801828D0F900FBE81111CC080819181B6
S1131140892B49F40FB6F8940F92828193810E94FF
S1131150330D0F900FBE6C817D81C6010E94980CE7
S1131160C8010E9464060E94430B81117ACF0E9439
S1131170340377CFC8010E9464060E94430B71CFE9
S1131180C8010E9464060E94430B0FB6F8940F92A4
S1131190F801828D0F900FBE811163CF0F900F90D5
S11311A00F900F900F90DF91CF911F910F91FF90AF
S11311B0EF90DF90CF90BF90AF909F908F90089565
S11311C0E091B005F091B1058081811107C08FEFE6
S11311D09FEF90939105809390050895E091B00559
S11311E0F091B1050580F681E02D0680F781E02DB0
S11311F082819381909391058093900508950F9334
S11312001F93CF93DF93EC010091980510919905FA
S11312108091E8059091E90502960E946802C00F4A
S1131220D11FE091E805F091E905D383C283C0178B
S1131230D10768F46091E8057091E9058091AE05E5
S11312409091AF056E5F7F4F0E94370217C0609187
S1131250E8057091E9058091B0059091B1056E5F44
S11312607F4F0E9437028091900590919105C81795
S1131270D90720F4D0939105C0939005DF91CF91C5
S11312801F910F9108954F925F926F927F928F9268
S11312909F92AF92BF92CF92DF92EF92FF920F9301
S11312A0CF93DF934C016B015A012901CA010E94BB
S11312B0EC033C01892B09F4EAC08CE290E00E9423
S11312C0EC03EC01892BB1F0788E6F8AA50165EAF5
S11312D070E0C3010E94330F81E0A81AB1088F891E
S11312E0988DA80EB91ED6018C91898F8C9181118D
S11312F005C018C0C3010E942104C9C0AE01465EE6
S11313005F4FF6013196B8E0CB0ED11CCF0121918D
S1131310DA012D93AD01DC018C91882319F0EC15D1
S1131320FD05A1F718A2043008F003E00E8B0BA30F
S11313301CA26E01B2E0CB0ED11CC6010E941202A7
S1131340CE010C960E941202D987C88784E090E0EF
S1131350801B91099D878C87DB8BCA8B1EA21DA2E3
S11313601FA218A619A61AA61BA6A201B401C5019C
S11313700E948E0299838883E114F10419F0F70125
S1131380D183C0830FB6F8940F9280919A058F5F32
S113139080939A058091E8059091E905892BA9F538
S11313A0D093E905C093E80580919A058130E9F569
S11313B084EC95E00E9404028DEC95E00E94040206
S11313C086ED95E00E9404028FED95E00E940402F0
S11313D08BEB95E00E94040282EB95E00E940402EC
S11313E085EA95E00E9404028CE995E00E940402DB
S11313F08BEB95E09093B1058093B00582EB95E07B
S11314009093AF058093AE0510C08091960581112D
S11314100CC0E091E805F091E90596898E89891759
S113142020F0D093E905C093E805809192058F5F81
S11314308093920589A38E8990919705981710F44B
S11314408093970590E09C01220F331F220F331FD6
S1131450220F331F820F931FB6018C539A4F0E94A1
S113146016020F900FBE80919605882361F0E091DB
S1131470E805F091E90596898E89981730F40E9461
S1131480340381E005C081E003C081E001C08FEF37
S1131490DF91CF910F91FF90EF90DF90CF90BF90AD
S11314A0AF909F908F907F906F905F904F90089532
S11314B0EF92FF920F930F2EFEE8EF2EF5E0FF2E32
S11314C0F02D00E020E030E045E550E069E471E013
S11314D086ED9BE00E944309813081F4F8948FEFFC
S11314E09FEF909391058093900581E080939605FA
S11314F010929905109298050E94FA020F91FF909C
S1131500EF90089580918D058F5F80938D050895E8
S1131510CF92DF92EF92FF920F931F93CF93DF93BB
S113152080918D05811199C0E0909805F0909905FE
S11315308FEFE81AF80AF0929905E0929805E11401
S1131540F104B9F48091B0059091B1052091AE05F4
S11315503091AF053093B1052093B0059093AF055A
S11315608093AE05809193058F5F809393050E94CD
S1131570E0088091900590919105E816F90610F421
S1131580D12C53C0D12CCC24C394E091B005F0915C
S1131590B1058081811107C08FEF9FEF9093910572
S11315A08093900542C0E091B005F091B1050580AB
S11315B0F681E02DC681D7818A819B81E816F906E0
S11315C028F490939105809390052FC08E010E5FAF
S11315D01F4FC8010E9468028C899D89892B21F0C4
S11315E0CE010C960E9468028E89909197059817F7
S11315F010F48093970590E09C01220F331F220F73
S1131600331F220F331F820F931FB8018C539A4F3D
S11316100E941602E091E805F091E9059E89868909
S1131620981708F4B2CFDC2CB0CFE091E805F09124
S1131630E905868990E0FC01EE0FFF1FEE0FFF1F06
S1131640EE0FFF1F8E0F9F1FFC01EC53FA4F80819A
S1131650823048F0DD24D39406C0809195058F5FD5
S113166080939505D12C80919405882311F0DD2475
S1131670D3948D2DDF91CF911F910F91FF90EF9017
S1131680DF90CF900895DF92EF92FF920F931F9314
S1131690CF93DF930FB6F8940F9280918D0581500C
S11316A080938D0580918D0581115FC080919A058D
S11316B0811133C05DC0D7011596ED91FC91169749
S11316C0C681D781CE010C960E9468028E010E5FFE
S11316D01F4FC8010E9468028E8990919705981740
S11316E010F48093970590E09C01220F331F220F82
S11316F0331F220F331F820F931FB8018C539A4F4D
S11317000E941602E091E805F091E9059E89868918
S1131710981768F0D09294050AC0C0E0D0E00F2E6C
S1131720F5EAEF2EF5E0FF2EF02DDD24D394F7013A
S113173080818111C0CFCD2B11F00E94E008C091AF
S11317409505CC2351F0D1E00E94880A8111D093F1
S11317509405C150C9F7109295058091940588238A
S113176031F00E94340381E003C080E001C080E0D6
S11317700F900FBEDF91CF911F910F91FF90EF90CB
S1131780DF900895CF93DF93EC01892B51F00E94F1
S1131790820A60E0CE010E94FF080E94430B81117F
S11317A002C00E943403DF91CF9108950CE915E043
S11317B00F2EF4ECEF2EF5E0FF2EF02D29C00E9441
S11317C0820AD801CC910E94430BCC2309F10FB6B5
S11317D0F8940F92D8011596ED91FC911697C68155
S11317E0D781CE0102960E94680280919A058150A9
S11317F080939A0580919B05815080939B050F905F
S11318000FBE8F89988D0E942104CE010E9421046D
S113181080919B058111D3CFF7018081823010F034
S11318200E9434030E94E700F3CF009721F48091D3
S1131830E8059091E9050FB6F8940F92FC0176A3A0
S113184065A30F900FBE089580918D05882321F024
S113185081E080939405089510929405E091E80541
S1131860F091E90585A10E94BD0120919705822F81
S113187090E0FC01EE0FFF1FEE0FFF1FEE0FFF1FA6
S1131880E80FF91FEC53FA4F3081311111C0215088
S1131890822F90E0FC01EE0FFF1FEE0FFF1FEE0FF3
S11318A0FF1FE80FF91FEC53FA4F3081332379F30C
S11318B0AC01440F551F440F551F440F551F480FCB
S11318C0591FDA01AC53BA4F1196ED91FC9112975E
S11318D00280F381E02D1296FC93EE931197495305
S11318E05A4FE417F50729F442815381FD015283CD
S11318F04183FC01EE0FFF1FEE0FFF1FEE0FFF1FD2
S11319008E0F9F1FFC01EC53FA4F0180F281E02DF2
S1131910868197819093E9058093E8052093970544
S1131920E091E805F091E90585A10E94B2010895CE
S1131930CF93DF93EB016091E8057091E905645F53
S11319407F4F0E94370261E0CE010E94FF08DF91C1
S1131950CF9108950F931F93CF93DF93DC011596D6
S1131960ED91FC911697C681D7818E01045F1F4FBC
S1131970C8010E94680280918D0581111CC00A5023
S11319801109C8010E9468028E89909197059817E1
S113199010F48093970590E09C01220F331F220FCF
S11319A0331F220F331F820F931FB8018C539A4F9A
S11319B00E94160205C0B80185EA95E00E9416024D
S11319C0E091E805F091E9059E898689891720F45C
S11319D081E08093940501C080E0DF91CF911F9155
S11319E00F91089520919305FC012083209198057F
S11319F030919905328321830895CF93DF93FC01BD
S1131A000FB6F8940F922091980530919905809122
S1131A1093059081981729F08181928128173907BD
S1131A20B0F4A181B281EB0148815981C9018A1BBB
S1131A309B0B8417950768F4CF01A21BB30B4A0FC5
S1131A405B1F598348830E94F20C80E003C081E04D
S1131A5001C081E00F900FBEDF91CF91089581E026
S1131A608093940508950F931F93CF93DF93FC0104
S1131A70892B09F455C02689A091E805B091E905A0
S1131A8056968C91281708F04BC084859585992328
S1131A9064F0A091E805B091E90556963C9184E084
S1131AA090E0831B91099587848730E0C901880FF2
S1131AB0991F880F991F880F991F280F391F2C53BE
S1131AC03A4F828593858217930719F58F01EF01A9
S1131AD02296CE010E946802E091E805F091E905A2
S1131AE08689F801868B90919705981710F4809356
S1131AF0970590E09C01220F331F220F331F220F02
S1131B00331F820F931FBE018C539A4F0E941602FB
S1131B1007C0A091E805B091E90556968C91868B93
S1131B20DF91CF911F910F9108950F931F93CF933E
S1131B30DF93FC01892B79F184A1815084A3268948
S1131B4093A1291751F181112AC0EF018F010E5F72
S1131B501F4FC8010E9468028BA18E8B24E030E0E5
S1131B60281B31093D872C8790919705981710F40D
S1131B708093970590E09C01220F331F220F331F9F
S1131B80220F331F820F931FB8018C539A4F0E9468
S1131B90160281E005C080E003C080E001C080E05F
S1131BA0DF91CF911F910F9108958091E805909155
S1131BB0E905892B39F0E091E805F091E90584A164
S1131BC08F5F84A38091E8059091E9050895A1E2CF
S1131BD01A2EAA1BBB1BFD010DC0AA1FBB1FEE1FA3
S1131BE0FF1FA217B307E407F50720F0A21BB30BEE
S1131BF0E40BF50B661F771F881F991F1A9469F76A
S1131C0060957095809590959B01AC01BD01CF01C5
S1131C1008950F931F93CF93DF938230910510F4AF
S1131C2082E090E0E091EC05F091ED0520E030E0F9
S1131C30A0E0B0E0309719F1408151810281138115
S1131C4048175907C8F08417950769F4109731F0BD
S1131C5012960C93129713961C9327C00093EC05CD
S1131C601093ED0522C02115310519F042175307D1
S1131C7018F49A01BD01EF01DF01F801DBCF211552
S1131C803105F9F0281B390B2430310580F48A81A1
S1131C909B816115710521F0FB019383828304C04C
S1131CA09093ED058093EC05FE01329644C0FE014D
S1131CB0E20FF31F819391932250310939832883D2
S1131CC03AC02091EA053091EB05232B41F4209191
S1131CD00201309103013093EB052093EA05209132
S1131CE00001309101012115310541F42DB73EB7B2
S1131CF04091040150910501241B350BE091EA0544
S1131D00F091EB05E217F307A0F42E1B3F0B281705
S1131D10390778F0AC014E5F5F4F2417350748F060
S1131D204E0F5F1F5093EB054093EA058193919307
S1131D3002C0E0E0F0E0CF01DF91CF911F910F915D
S1131D400895CF93DF93009709F481C0FC01329783
S1131D5013821282A091EC05B091ED05109781F4E5
S1131D6020813181820F931F2091EA053091EB0588
S1131D702817390751F5F093EB05E093EA0567C09E
S1131D80ED0120E030E0CE17DF0740F44A815B81AB
S1131D909E0141155105F1F0EA01F5CFD383C283C9
S1131DA040815181840F951FC817D90759F4888140
S1131DB09981840F951F0296918380838A819B81E8
S1131DC0938382832115310529F4F093ED05E09383
S1131DD0EC053DC0E901FB83EA8349915991C40FA5
S1131DE0D51FEC17FD0761F480819181840F951F45
S1131DF00296E90199838883828193819B838A83F4
S1131E00E0E0F0E012968D919C911397009719F001
S1131E10FD01DC01F7CF8D919C9111979D012E5FFF
S1131E203F4F820F931F2091EA053091EB0528174D
S1131E30390769F4309729F41092ED051092EC05F6
S1131E4002C013821282B093EB05A093EA05DF91DE
S1131E50CF910895FB01DC0102C001900D92415025
S1131E605040D8F70895DC0101C06D9341505040B3
S10B1E70E0F70895F894FFCF98
S1131E780000EE052000C600CE00544F00416E6FEE
S1131E8874686572005468656E20776520537461C0
S1131E987274210A00537461727475700001000130
S1131EA8001C003E007E00FE00FC01FE007E003E99
S1111EB8001C0000000000000049444C4500DE
S9030000FC
