S0120000537061636573686970732E73726563FF
S11300000C9448000C9465000C9465000C946500F5
S11300100C9465000C9465000C9465000C946500C8
S11300200C9465000C9465000C9465000C946500B8
S11300300C9465000C94F3070C9465000C94650013
S11300400C9440050C9465000C9465000C946500B8
S11300500C94E9080C9427090C9465000C94650031
S11300600C9465000C9465000C9465000C94650078
S11300700C946F090C94AD090C9465001A161A16A9
S11300801A165516431652161A161A1655164316EC
S113009011241FBECFEFD8E0DEBFCDBF11E0A0E03A
S11300A0B1E0E4EAFFE202C005900D92AE39B10777
S11300B0D9F728E0AEE9B1E001C01D92A436B20739
S11300C0E1F70E941E020C94D0170C94000066E025
S11300D070E080E090E00E94231220E04FEF5FEF99
S11300E060E070E08091490890914A080E94DC0D1C
S11300F0882399F320E04FEF5FEF60E070E0809198
S11301005C0890915D080E94DC0D882331F38FE92F
S113011091E00E94E904E82FF0E0EE0FFF1FE9559B
S1130120FE4FC081D1818FE991E00E94E604682FDF
S113013070E082E090E00E942D0BC817D907D9F037
S11301408FE991E00E94E604682F70E082E090E07D
S11301500E942D0BEC018FE991E00E94E904E82F45
S1130160F0E0EE0FFF1FE955FE4F80819181C80F2B
S1130170D91FD183C08381EA91E00E94E904E82F6A
S1130180F0E0EE0FFF1FE955FE4FC081D18181EAF7
S113019091E00E94E604682F70E082E090E00E9403
S11301A02D0BC817D907D9F081EA91E00E94E60423
S11301B0682F70E082E090E00E942D0BEC0181EA50
S11301C091E00E94E904E82FF0E0EE0FFF1FE955EB
S11301D0FE4F80819181C80FD91FD183C08320E055
S11301E040E050E060E070E080915C0890915D0830
S11301F00E94C60C72CF63E070E080E090E00E9441
S1130200231220E04FEF5FEF60E070E080915E0822
S113021090915F080E94DC0D882399F38FE991E0A7
S11302200E94E9048D3090F085EA91E00E94E60492
S1130230682F8FE991E00E94EC0485EA91E00E9426
S1130240E904682F8FE991E00E94EF048FE991E0BF
S11302500E94E90461E0680F8FE991E00E94EF04D5
S113026081EA91E00E94E904811112C083EA91E0DD
S11302700E94E604682F81EA91E00E94EC0483EA7C
S113028091E00E94E904682F81EA91E00E94EF0462
S113029081EA91E00E94E9046FEF680F81EA91E03E
S11302A00E94EF04AECF62E070E080E090E00E9434
S11302B0231220E04FEF5FEF60E070E08091470889
S11302C0909148080E94DC0D882399F30E9406054A
S11302D0823C9105B9F485EA91E00E94E6048830F5
S11302E030F068E085EA91E00E94EC04E2CF85EA10
S11302F091E00E94E60461E0680F85EA91E00E94C3
S1130300EC04D7CF0E94060583389105B9F485EA39
S113031091E00E94E604823030F461E085EA91E0E5
S11303200E94EC04C6CF85EA91E00E94E6046FEFD8
S1130330680F85EA91E00E94EC04BBCF0E94060599
S113034083349105B9F485EA91E00E94E9048111AE
S113035006C060E085EA91E00E94EF04AACF85EA36
S113036091E00E94E9046FEF680F85EA91E00E9432
S1130370EF049FCF0E940605813C910509F099CFB7
S113038085EA91E00E94E904853030F065E085EA71
S113039091E00E94EF048DCF85EA91E00E94E90488
S11303A061E0680F85EA91E00E94EF0482CF8091BA
S11303B09E01811102C00E94F204E0919E01F0E0CE
S11303C0EE0FFF1FE955FE4F808191810E94FA04D0
S11303D00E94F40480919E018F5F8E3018F4809304
S11303E09E01089510929E01089560E08FE991E0C6
S11303F00E94EC046FE08FE991E00E94EF046FE04B
S113040081EA91E00E94EC0460E081EA91E00E94BC
S1130410EF0464E085EA91E00E94EC0460E085EA80
S113042091E00E94EF0464E083EA91E00E94EC040E
S11304306DE083EA91E00E94EF0408950E94720542
S11304405E9840E061E08EE10E94930C0E942905D1
S113045040E061E08AE00E94930C909350088093FE
S11304604F0810925708E1E5F8E0108211820E94CB
S1130470F5010E94440A0E94670A0E94AE0AE12C18
S1130480F12C00E020E030E040E550E06AE071E06B
S11304908CE394E00E943C0F20E030E040E550E023
S11304A060E271E083E591E00E943C0F20E030E0DF
S11304B040E550E06EE271E08AE892E00E943C0F71
S11304C020E030E040E550E06EE371E08BEF90E037
S11304D00E943C0F20E030E040E550E062E571E02E
S11304E087E690E00E943C0F87ED91E00E942E0584
S11304F078940E94581088EE93E00E94D011FBCFAC
S1130500E7EAF1E083EC91E011921192E817F90720
S1130510D9F7089565E070E080E090E00E9423122E
S113052020E04FEF5FEF60E070E080914B08909126
S11305304C080E94DC0D882399F320E04FEF5FEF15
S113054060E070E080915C0890915D080E94DC0D91
S1130550882331F30E94800285EA91E00E94E60438
S1130560682F70E06150710982E090E00E942D0BC9
S11305707C0185EA91E00E94E604682F70E082E045
S113058090E00E942D0B8C0185EA91E00E94E60424
S1130590682F70E06F5F7F4F82E090E00E942D0B28
S11305A0EC0185EA91E00E94E904E82FF0E0EE0F07
S11305B0FF1FE955FE4F0E0D1F1DC00FD11FD18324
S11305C0C08385EA91E00E94E904C82F85EA91E09E
S11305D00E94E604682F70E082E090E00E942D0BF8
S11305E0EC2FF0E0EE0FFF1FE755FE4F9183808361
S11305F083EA91E00E94E604682F70E0615071097B
S113060082E090E00E942D0B7C0183EA91E00E943D
S1130610E604682F70E082E090E00E942D0B8C01CC
S113062083EA91E00E94E604682F70E06F5F7F4FD9
S113063082E090E00E942D0BEC0183EA91E00E949D
S1130640E904E82FF0E0EE0FFF1FE955FE4F0E0D11
S11306501F1DC00FD11FD183C08383EA91E00E9484
S1130660E904C82F83EA91E00E94E604682F70E051
S113067082E090E00E942D0BEC2FF0E0EE0FFF1FC4
S1130680EB55FE4F9183808320E040E050E060E032
S113069070E080915C0890915D080E94C60C40CF88
S11306A00E94800280915208833008F06EC09091BD
S11306B05108911111C0E7EAF1E048E350E0538397
S11306C0428328E230E035832483378326833187CD
S11306D02087538742875EC0913099F4E7EAF1E0BE
S11306E028E330E03383228320E130E03583248320
S11306F03783268348E150E0518740873387228738
S113070049C0923099F4E7EAF1E028E330E033831A
S1130710228348E050E0558344833783268340E2B4
S113072050E0518740873387228734C0933069F57E
S1130730E7EAF1E02AE030E0318320833383228347
S11307404EE853E05583448380E892E097838683A0
S11307506EE872E071876087338722875587448704
S11307609787868720E833E0318B208B2FE130E0B8
S1130770338B228B25E131E0358B248B378B268B11
S1130780918F808F938F828F089590915108933029
S113079008F071C0811111C0E7EAF1E028E330E00C
S11307A0318B208B88E290E0938B828B958B848BAA
S11307B0978B868B318F208F0895813099F4E7EAE7
S11307C0F1E080E190E0918B808B28E130E0338B85
S11307D0228B958B848B978B868B88E390E0918F0B
S11307E0808F0895823099F4E7EAF1E088E390E09D
S11307F0918B808B28E030E0338B228B958B848B1C
S113080020E230E0378B268B918F808F08958330E0
S113081091F5E7EAF1E085E190E0918380839383A9
S113082082838FE992E09583848380E892E09783C2
S113083086832EE031E0318720872AE031E0338758
S113084022872EE030E03587248720E833E037879D
S113085026874EE852E0518B408B4AE853E0538B95
S1130860428B4AE050E0558B448B978B868B918F5B
S1130870808F338F228F089561E070E080E090E0F4
S11308800E942312C1E5D8E020E04FEF5FEF60E063
S113089070E080915508909156080E94DC0D8823E1
S11308A099F38FE991E00E94E604182F81EA91E020
S11308B00E94E604181310C08FE991E00E94E90435
S11308C0182F81EA91E00E94E904212F30E090E0A2
S11308D0019728173907B1F08FE991E00E94E604E7
S11308E0182F81EA91E00E94E60418131AC08FE9D8
S11308F091E00E94E904182F81EA91E00E94E90442
S113090018130FC064E18FE991E00E94EF0460E0E6
S113091081EA91E00E94EF0464E181EA91E00E949F
S1130920EC0465EA71E081EA91E00E94D90A182F8B
S113093063EA71E08FE991E00E94D90A111103C0C2
S113094081110DC0A1CF811114C089818F5F89836A
S11309500E94500362E0CE010E9469050EC08881A6
S11309608F5F88830E94500362E0CE010E94690574
S113097004C062E0CE010E9469050AE010E020E0B4
S113098030E040E050E063E08091530890915408D7
S11309900E94CF140E94F5010E94CD0A0E948C107F
S11309A000E010E020E030E0AC0161E08091530809
S11309B0909154080E94CF148881833020F4898157
S11309C0833008F461CF0E9486105ECFFC018081E1
S11309D00895FC0181810895FC0160830895FC0160
S11309E0618308955A9A08955D9A5D985C9A5C981B
S11309F05A980895809582B985B1836085B985B187
S1130A0093709095892385B90895089586B1837C60
S1130A1090E00895CF93DF9300D0CDB7DEB76A831B
S1130A2080910B0290910C02009771F0198220E0E2
S1130A30AE014F5F5F4FBE016E5F7F4F0E948F0D0F
S1130A40898181110E943E070F900F90DF91CF9111
S1130A50089590930C0280930B02089590930A02D8
S1130A60809309028AE087BD84B5826084BDEEE686
S1130A70F0E080818260808385B5856085BD0895BE
S1130A801F920F920FB60F9211242F933F934F93FF
S1130A905F936F937F938F939F93AF93BF93EF93E2
S1130AA0FF93E0910902F0910A02309709F0099549
S1130AB0FF91EF91BF91AF919F918F917F916F9132
S1130AC05F914F913F912F910F900FBE0F901F9008
S1130AD01895462FBC0180910D0290910E020E9440
S1130AE0A60808958F929F92AF92BF92CF92DF9201
S1130AF0EF920F9386EE91E00E94CB0583EC91E098
S1130B000E94CB050F2EFAE08F2EF5E09F2EF02DDC
S1130B100F2EF3ECAF2EF1E0BF2EF02D0F2EF6EEDC
S1130B20CF2EF1E0DF2EF02DE12C00E023E040E0B9
S1130B3052EC61E070E080E00E942C0890930E0279
S1130B4080930D0288B1836C88B95B9A8AB18467FB
S1130B508AB95E9A81B18FEF81B984B1836084B917
S1130B6084B18C6384B90F91EF90DF90CF90BF90E4
S1130B70AF909F908F90089595B1937C95B925B1CE
S1130B8034E0839FC0011124822B85B9089585B177
S1130B90837C85B90895FC0110A211A212A20895C4
S1130BA0FC0182A18823D9F081A1DF01A80FB11D26
S1130BB08C91DB018C9321A130E02F5F3F4F2F718B
S1130BC03078332334F421503109206E3F6F2F5F86
S1130BD03F4F21A382A1815082A380E0089581E048
S1130BE00895FC0142A14032B8F420A130E0E20FA4
S1130BF0F31F60832F5F3F4F2F713078332334F41A
S1130C0021503109206E3F6F2F5F3F4FFC0120A31D
S1130C104F5F42A380E0089582E00895FC010396AB
S1130C20928381832FEF3FEF3483238396838583DD
S1130C309087878310820895FC0111861086089599
S1130C40CF93DF939C01FB01DC011196CD91DC91E4
S1130C501297D383C2838C819D81958384838C81F5
S1130C609D81DC0113967C936E9312977D836C8334
S1130C7031872087F90180818F5F8083DF91CF9155
S1130C800895CF93DF93EB01488159814F3F2FEFB4
S1130C90520721F4FC01A781B0850DC0DC01139635
S1130CA001C0DF011296ED91FC91139720813181EF
S1130CB042175307B0F71296ED91FC911397FB83FB
S1130CC0EA83D583C483BD83AC831396DC93CE932C
S1130CD0129799878887FC0120812F5F2083DF91F9
S1130CE0CF910895CF93DF93FC01A085B185C28194
S1130CF0D381848195819D838C83C481D5818281B4
S1130D0093819B838A8311968D919C911297E81706
S1130D10F90731F48481958112969C938E931197EF
S1130D20118610868C9181508C93DF91CF91089518
S1130D3031E1FC013083319722E220833197A3E330
S1130D40A0833197608331977083319710823197F4
S1130D5060E8608331971082319762E06083319755
S1130D6063E06083319764E06083319765E060837A
S1130D70319766E06083319767E06083319768E07C
S1130D806083319769E06083319760E160833197D4
S1130D903083319732E13083319733E130833197B7
S1130DA034E13083319735E13083319736E1308354
S1130DB0319737E13083319738E13083319739E126
S1130DC03083319730E23083319731E23083319789
S1130DD02083319723E220833197408331975083D6
S1130DE0319726E22083319727E22083319728E246
S1130DF02083319729E22083319720E320833197A0
S1130E0021E32083869708951092890085EE8093CC
S1130E1088008BE080938100EFE6F0E080818260BF
S1130E208083A0912908B0912A08CD91CDBFDD918E
S1130E30DEBFFF91EF91DF91CF91BF91AF919F9171
S1130E408F917F916F915F914F913F912F911F915E
S1130E500F91FF90EF90DF90CF90BF90AF909F9055
S1130E608F907F906F905F904F903F902F901F9046
S1130E700F900FBE0F90089581E008950F920FB662
S1130E80F8940F921F9211242F923F924F925F92E7
S1130E906F927F928F929F92AF92BF92CF92DF9286
S1130EA0EF92FF920F931F932F933F934F935F9370
S1130EB06F937F938F939F93AF93BF93CF93DF935E
S1130EC0EF93FF93A0912908B0912A080DB60D92D3
S1130ED00EB60D920E943212A0912908B0912A08F0
S1130EE0CD91CDBFDD91DEBFFF91EF91DF91CF9129
S1130EF0BF91AF919F918F917F916F915F914F912E
S1130F003F912F911F910F91FF90EF90DF90CF9021
S1130F10BF90AF909F908F907F906F905F904F9015
S1130F203F902F901F900F900FBE0F9008950F9237
S1130F300FB6F8940F921F9211242F923F924F9262
S1130F405F926F927F928F929F92AF92BF92CF9255
S1130F50DF92EF92FF920F931F932F933F934F9340
S1130F605F936F937F938F939F93AF93BF93CF932D
S1130F70DF93EF93FF93A0912908B0912A080DB64F
S1130F800D920EB60D920E94961081110E9432129B
S1130F90A0912908B0912A08CD91CDBFDD91DEBF83
S1130FA0FF91EF91DF91CF91BF91AF919F918F917D
S1130FB07F916F915F914F913F912F911F910F916D
S1130FC0FF90EF90DF90CF90BF90AF909F908F9065
S1130FD07F906F905F904F903F902F901F900F9055
S1130FE00FBE0F9008950E9497071895CF93DF9333
S1130FF0EC010E94861080910F0290911002892BBF
S113100031F484E192E09093100280930F022091D6
S1131010110230911202C9018C0F9D1F873745E0E0
S1131020940770F42817390770F4C0910F02D09117
S11310301002C20FD31F909312028093110205C0B5
S1131040C0E0D0E002C0C0E0D0E00E945111CE0167
S1131050DF91CF91089508954F925F926F927F929E
S11310608F929F92AF92BF92CF92DF92FF920F9393
S11310701F93CF93DF93CDB7DEB7F82E2A013B0140
S113108088E090E00E949F168C018F2D90E0880FDD
S1131090991FFC01E557F84F11830083FC01EA5FB7
S11310A0FE4F80819181D80111969C938E93139663
S11310B0BC92AE9212971596DC92CE921497179624
S11310C09C928E921697FFB6F894ED91FC9111972D
S11310D03697808182608083CD90DC90D301C201F9
S11310E0880F991FAA1FBB1F880F991FAA1FBB1F18
S11310F09C01AD01220F331F441F551F60E070E0B7
S113110081EE90E00E9477162150F60132972083F9
S1131110D801ED91FC911197359788E98083ED9181
S1131120FC91349786E08083FFBEC801DF91CF91A4
S11311301F910F91FF90DF90CF90BF90AF909F9041
S11311408F907F906F905F904F900895EF92FF92F1
S11311500F931F93CF93DF93FC01A281B381109768
S113116079F0E42FF0E092965C9120E230E0251BC8
S113117031092E173F071CF17C01411104C016C030
S11311804230F8F4F9CFEB014150042F10E00F5F27
S11311901F4F060F171F6991D70112968D919C91CD
S11311A013970E94F105C017D107A9F7D701ED9154
S11311B0FC91359780818062808380E003C082E067
S11311C001C082E0DF91CF911F910F91FF90EF90CA
S11311D008951F920F920FB60F9211242F933F93ED
S11311E04F935F936F937F938F939F93AF93BF932B
S11311F0CF93EF93FF93E0918B07F0918C07309797
S1131200A1F0C091C6006C2F848195810E94F105E4
S113121080918B0790918C07DC011696ED91FC91DF
S11312201797309711F06C2F0995FF91EF91CF919B
S1131230BF91AF919F918F917F916F915F914F91EA
S11312403F912F910F900FBE0F901F9018951F92F2
S11312500F920FB60F9211242F933F934F935F93E6
S11312606F937F938F939F93AF93BF93EF93FF936A
S1131270CF93DF931F92CDB7DEB7E0918B07F09148
S11312808C07309799F0BE016F5F7F4F8281938105
S11312900E94D005811104C089818093C6000BC0CF
S11312A0E1ECF0E080818F7D808305C0E1ECF0E02B
S11312B080818F7D80830F90DF91CF91FF91EF919B
S11312C0BF91AF919F918F917F916F915F914F915A
S11312D03F912F910F900FBE0F901F9018951F9262
S11312E00F920FB60F9211242F933F934F935F9356
S11312F06F937F938F939F93AF93BF93CF93EF930A
S1131300FF93E0918D07F0918E073097A1F0C09183
S1131310CE006C2F848195810E94F10580918D0708
S113132090918E07DC011696ED91FC9117973097FA
S113133011F06C2F0995FF91EF91CF91BF91AF916F
S11313409F918F917F916F915F914F913F912F91D9
S11313500F900FBE0F901F9018951F920F920FB60B
S11313600F9211242F933F934F935F936F937F9327
S11313708F939F93AF93BF93EF93FF93CF93DF9399
S11313801F92CDB7DEB7E0918D07F0918E073097AD
S113139099F0BE016F5F7F4F828193810E94D005D7
S11313A0811104C089818093CE000BC0E9ECF0E088
S11313B080818F7D808305C0E9ECF0E080818F7DA2
S11313C080830F90DF91CF91FF91EF91BF91AF9107
S11313D09F918F917F916F915F914F913F912F9149
S11313E00F900FBE0F901F90189520E040E050E042
S11313F060E070E080915508909156080E94C60CF8
S1131400089520E040E050E060E070E080914B08F7
S113141090914C080E94C60C20E040E050E060E04F
S113142070E080914708909148080E94C60C20E023
S113143040E050E060E070E080915A0890915B08D1
S11314400E94C60C20E040E050E060E070E0809133
S1131450490890914A080E94C60C20E040E050E000
S113146060E070E080915E0890915F080E94C60C75
S113147020E040E050E060E070E080914D08909101
S11314804E080E94C60C08950F931F9305EF19E0B0
S113149020E030E041E060E570E084E691E00E9405
S11314A09D14909359088093580801E01AE020E0B5
S11314B030E041E064E670E085E791E00E949D142D
S11314C090935408809353081F910F91089543E01B
S11314D060E081E00E94930C909348088093470851
S11314E043E060E081E00E94930C90934C08809369
S11314F04B0843E060E081E00E94930C90934A081B
S11315008093490843E060E081E00E94930C90934B
S11315105B0880935A0843E060E081E00E94930CEA
S113152090935F0880935E0843E060E081E00E944E
S1131530930C909356088093550843E060E081E053
S11315400E94930C90934E0880934D0881E00E9472
S1131550750D90935D0880935C0808950F931F9315
S11315600E948C1000E010E020E030E0AC0161E06B
S113157080915808909159080E94CF140E948C10B1
S113158020E030E0AC0161E0809153089091540870
S11315900E94CF141F910F91089520ED37E005C0EC
S11315A00197F1F72150310919F080ED97E0F8CF58
S11315B00895EF92FF920F931F93CF93DF938C01C3
S11315C0EB010E94E9047C01CE010E94E904E816C3
S11315D0F906E1F4C8010E94E6047C01CE010E94F0
S11315E0E6040197E816F90661F1C8010E94E604D1
S11315F08C01CE010E94E6049C012F5F3F4F81E0E5
S113160090E02017310711F180E020C0C8010E944A
S1131610E6047C01CE010E94E604E816F906A1F472
S1131620C8010E94E9048C01CE010E94E9049C01D6
S11316302F5F3F4F81E090E02017310739F080E0C1
S113164005C081E090E002C080E090E0DF91CF919E
S11316501F910F91FF90EF9008950097B9F06115D5
S11316607105B9F020E030E041E050E0FA01E89F74
S1131670A001E99F500DF89F500D11242F5F3F4F9B
S11316802617370799F7842F952F089580E090E067
S1131690089581E090E008950F931F93CF93DF9313
S11316A0EC01042F1A8D4C8D41110CC08881998155
S11316B0892B09F042C08A819B810E94D1131B822D
S11316C01A8242C0011117C050E08C819D810E9492
S11316D0C0172C8D8C819D81820F911D9D838C83DD
S11316E02A813B818217930750F1888199819D83D8
S11316F08C8380E029C050E08E819F810E94C017B6
S11317008C8D90E09195819591092E813F81280FD0
S1131710391F3F832E83488159812417350730F4BC
S11317202A813B81820F931F9F838E83023049F469
S1131730112349F0115080E007C080E005C080E02B
S113174003C080E001C080E01F5F1A8FDF91CF915A
S11317501F910F910895EF92FF920F931F93CF93D0
S1131760DF9300D0CDB7DEB79A838983FC01078D60
S113177010A1F801928D838D9817E8F4462FE68C1A
S1131780BE016F5F7F4FC8010E944C0BF82EFFEF24
S1131790EF120DC0F8018189882371F0C8014196C8
S11317A00E94D112882341F0FF24F39405C0E394EE
S11317B0F801E68E01C0F12C8F2D0F900F90DF9170
S11317C0CF911F910F91FF90EF900895FC01448DEC
S11317D04423A9F050E026813781240F351F378335
S11317E02683828193812817390720F08081918193
S11317F097838683CB01668177810E94C017089501
S1131800EF92FF920F931F93CF938C010FB6F8942E
S11318100F92FC01C68D1C16F4F47C01F1E1EF0E6D
S1131820F11CF801878D90A1892B49F060E0C80173
S11318300E94AB0B882369F00E945D130AC0F80173
S11318408189882341F0C7010E94D11281110E942D
S11318505D13C15031F78FEFF801868F0F900FBEE3
S11318600FB6F8940F92C58D1C16ACF480858111C7
S113187006C011C0F8018085811105C00CC0780133
S1131880F8E0EF0EF11CC7010E94D11281110E94F1
S11318905D13C15079F78FEFF801858F0F900FBE5C
S11318A0CF911F910F91FF90EF900895CF93DF9305
S11318B0EC010FB6F8940F92488159812C8D30E0D9
S11318C07B8D729FC001739F900D1124FA01E80F64
S11318D0F91FFB83EA831A8E5D834C83821B930B6F
S11318E0840F951F9F838E838FEF8D8F8E8F611151
S11318F00CC08885882389F0CE0108960E94D112F5
S1131900882359F00E943E0708C0CE0108960E9421
S11319100E06CE0141960E940E060F900FBE81E086
S1131920DF91CF910895FF920F931F93CF93DF938D
S1131930082F162FF42E6623D9F0869FC001112498
S113194083960E94F607EC01009759F418C00B8F98
S11319501C8F61E0CE010E94560CFAA218A21F8EC1
S11319600EC0839699838883F2CFD983C883EFCF3F
S113197083E290E00E94F607EC01892BB1F7CE01D7
S1131980DF91CF911F910F91FF9008959F92AF9295
S1131990BF92CF92DF92EF92FF920F931F93CF9358
S11319A0DF9300D000D01F92CDB7DEB78C016B015E
S11319B05D834C83A22EB12C992493947C0188E0FE
S11319C0E80EF11C0FB6F8940F92F801928D838DF6
S11319D0981718F0F2E0AF1227C04A2DB601C801DB
S11319E00E944C0BF801278D30A1232B49F06A2D5E
S11319F0C8010E94AB0B882399F00E943E0710C0D7
S1131A00F8019189992349F0C80141960E94D112A5
S1131A10882331F00E943E0703C081110E943E07D3
S1131A200F900FBE81E050C08C819D81892B21F4E1
S1131A300F900FBE80E048C0B11005C0CE010196E2
S1131A400E941913B92C0F900FBE0E9486100FB676
S1131A50F8940F92F801858D8F3F09F4158EF801E3
S1131A60868D8F3F09F4168E0F900FBEBE016C5FFA
S1131A707F4FCE0101960E94241381111FC00FB61F
S1131A80F8940F92F801928D0F900FBE838D9813E6
S1131A900FC06C817D81C7010E94A612C8010E94FB
S1131AA0000C0E94511181118DCF0E943E078ACFF4
S1131AB0C8010E94000C0E94511184CFC8010E94E9
S1131AC0000C0E94511180E00F900F900F900F9026
S1131AD00F90DF91CF911F910F91FF90EF90DF90C6
S1131AE0CF90BF90AF909F900895CF93DF93482FEE
S1131AF060E081E00E94930CEC01009761F01B828E
S1131B001A82198218821E8220E040E050E060E0D0
S1131B1070E00E94C60CCE01DF91CF910895EF9240
S1131B20FF920F931F93CF93DF937A01FC01528DA1
S1131B30338D531710F0223069F5122FEC010E8DFE
S1131B40422F0E944C0B0F3F09F58F8D98A1892BD2
S1131B5069F0612FCE010E94AB0B8823E9F0E114F8
S1131B60F104E1F081E0F70180831FC089898823B3
S1131B70B9F0CE0141960E94D112882399F0E11464
S1131B80F10491F081E0F70180830FC00F5F0E8FA5
S1131B9081E00BC080E009C081E007C081E005C09E
S1131BA081E003C081E001C081E0DF91CF911F910A
S1131BB00F91FF90EF9008958F929F92AF92BF92F2
S1131BC0CF92DF92EF92FF920F931F93CF93DF9305
S1131BD000D000D01F92CDB7DEB78C015B015D83CE
S1131BE04C83822EE12C992493946C0181E1C80EDC
S1131BF0D11C0FB6F8940F92F801F28CFF2091F1EA
S1131C00C680D780B501C8010E94E60B811019C0B7
S1131C10FA94F801F28E80819181892B29F40E9433
S1131C201114F80193838283F80180858823B1F02D
S1131C30C80108960E94D112882381F00E943E07B1
S1131C400DC0F801D782C6828189882339F0C80182
S1131C5041960E94D11281110E943E070F900FBE3F
S1131C6081E064C08C819D81892B21F40F900FBE8B
S1131C7080E05CC0E11005C0CE0101960E941913FA
S1131C80E92C0F900FBE0E9486100FB6F8940F92A5
S1131C90F801858D8F3F09F4158EF801868D8F3FED
S1131CA009F4168E0F900FBEBE016C5F7F4FCE01FC
S1131CB001960E94241381112BC00FB6F8940F9241
S1131CC0F801828D0F900FBE81111CC0808191811B
S1131CD0892B49F40FB6F8940F92828193810E9464
S1131CE06F130F900FBE6C817D81C6010E94A612F6
S1131CF0C8010E94000C0E94511181117ACF0E94E8
S1131D003E0777CFC8010E94000C0E94511171CF89
S1131D10C8010E94000C0E9451110FB6F8940F9252
S1131D20F801828D0F900FBE811163CF0F900F9039
S1131D300F900F900F90DF91CF911F910F91FF9013
S1131D40EF90DF90CF90BF90AF909F908F900895C9
S1131D50CF93DF93EC010FB6F8940F928D8D8F3FE4
S1131D6009F41D8E8E8D8F3F09F41E8E0F900FBEC9
S1131D708A8D811104C0CE0141960E94B812CE0111
S1131D800E94000CDF91CF910895E091BB07F09180
S1131D90BC078081811107C08FEF9FEF9093930759
S1131DA0809392070895E091BB07F091BC070580EA
S1131DB0F681E02D0680F781E02D82819381909356
S1131DC09307809392070895FF920F931F93CF93E5
S1131DD0DF93EC01F62E00919A0710919B078091F6
S1131DE0290890912A0802960E947206CF3F8FEF2D
S1131DF0D80769F4FF2059F06091290870912A08E6
S1131E006E5F7F4F8DE997E00E9420062FC0C00FC0
S1131E10D11FE0912908F0912A08D383C283C01707
S1131E20D10768F46091290870912A088091B90754
S1131E309091BA076E5F7F4F0E94410617C0609170
S1131E40290870912A088091BB079091BC076E5FA6
S1131E507F4F0E9441068091920790919307C81783
S1131E60D90720F4D0939307C0939207DF91CF91C1
S1131E701F910F91FF9008954F925F926F927F92FE
S1131E808F929F92AF92BF92CF92DF92EF92FF9286
S1131E900F931F93CF93DF934C016B015A012901D8
S1131EA0CA010E94F6073C01892B09F4EFC088E2BD
S1131EB090E00E94F607EC01892BB1F0788E6F8ACE
S1131EC0A50165EA70E0C3010E94C91781E0A81A60
S1131ED0B1088F89988DA80EB91ED6018C91898F6F
S1131EE08C91811105C018C0C3010E942B08CEC07B
S1131EF0AE01465E5F4FF6013196B4E0CB0ED11CC5
S1131F00CF012191DA012D93AD01DC018C9188235D
S1131F1019F0CE16DF06A1F71C8E0A3008F009E08E
S1131F200E8B0F8F18A26E01B2E0CB0ED11CC6012E
S1131F300E941C06CE010C960E941C06D987C887F5
S1131F408AE090E0801B91099D878C87DB8BCA8B8C
S1131F501AA219A21BA21CA21DA21EA21FA2A201A8
S1131F60B401C5010E94980699838883E114F104A1
S1131F7019F0F701D183C0830FB6F8940F928091C2
S1131F809C078F5F80939C078091290890912A0871
S1131F90892BD1F5D0932A08C093290880919C07F6
S1131FA0813009F041C00FEC17E00F2EF9E2EF2E5B
S1131FB0F8E0FF2EF02DC8010E940E06075F1F4FA8
S1131FC00E151F05C1F786EC97E00E940E068DEBF7
S1131FD097E00E940E0680EB97E00E940E0687EAC7
S1131FE097E00E940E068DE997E00E940E0686ECAB
S1131FF097E09093BC078093BB078DEB97E0909399
S1132000BA078093B90710C08091980781110CC05A
S1132010E0912908F0912A0896898E89891720F081
S1132020D0932A08C0932908809194078F5F8093E6
S113203094078D8F8E8990919907981710F4809347
S1132040990790E09C01220F331F220F331F220FA8
S1132050331F820F931FB6018153984F0E942006AD
S11320600F900FBE80919807882361F0E0912908B2
S1132070F0912A0896898E89981730F40E943E07B9
S113208081E005C081E003C081E001C08FEFDF91F2
S1132090CF911F910F91FF90EF90DF90CF90BF9061
S11320A0AF909F908F907F906F905F904F90089526
S11320B0EF92FF920F930F2EF0E9EF2EF7E0FF2E31
S11320C0F02D00E020E030E040E550E060E971E010
S11320D084EE91E10E943C0F8130A1F40E947B14B4
S11320E0813081F4F8948FEF9FEF9093930780935E
S11320F0920781E08093980710929B0710929A07A9
S11321000E9404070F91FF90EF90089580918F072C
S11321108F5F80938F0708950FB6F8940F92809184
S11321209A0790919B070F900FBE0895CF92DF926C
S1132130EF92FF920F931F93CF93DF9380918F07BA
S1132140811199C0E0909A07F0909B078FEFE81AED
S1132150F80AF0929B07E0929A07E114F104B9F4AB
S11321608091BB079091BC072091B9073091BA07C1
S11321703093BC072093BB079093BA078093B907A9
S1132180809195078F5F809395070E94C50E80917B
S1132190920790919307E816F90610F4D12C53C0D6
S11321A0D12CCC24C394E091BB07F091BC0780816F
S11321B0811107C08FEF9FEF90939307809392074D
S11321C042C0E091BB07F091BC070580F681E02D89
S11321D0C681D7818A819B81E816F90628F49093F9
S11321E09307809392072FC08E010E5F1F4FC80183
S11321F00E9472068C899D89892B21F0CE010C9650
S11322000E9472068E8990919907981710F4809312
S1132210990790E09C01220F331F220F331F220FD6
S1132220331F820F931FB8018153984F0E942006D9
S1132230E0912908F0912A089E898689981708F464
S1132240B2CFDC2CB0CFE0912908F0912A0886891E
S113225090E0FC01EE0FFF1FEE0FFF1FEE0FFF1FBC
S11322608E0F9F1FFC01E153F84F8081823048F0AC
S1132270DD24D39406C0809197078F5F80939707DE
S1132280D12C80919607882311F0DD24D3948D2DD1
S1132290DF91CF911F910F91FF90EF90DF90CF903E
S11322A00895DF92EF92FF920F931F93CF93DF93E2
S11322B00FB6F8940F9280918F07815080938F0707
S11322C080918F0781115FC080919C07811133C079
S11322D05DC0D7011596ED91FC911697C681D78103
S11322E0CE010C960E9472068E010E5F1F4FC8012C
S11322F00E9472068E8990919907981710F4809322
S1132300990790E09C01220F331F220F331F220FE5
S1132310331F820F931FB8018153984F0E942006E8
S1132320E0912908F0912A089E898689981768F017
S1132330D09296070AC0C0E0D0E00F2EF0EBEF2E4B
S1132340F7E0FF2EF02DDD24D394F7018081811175
S1132350C0CFCD2B11F00E94C50EC0919707CC239E
S113236051F0D1E00E9496108111D0939607C1508C
S1132370C9F71092970780919607882331F00E943D
S11323803E0781E003C080E001C080E00F900FBEF3
S1132390DF91CF911F910F91FF90EF90DF900895FF
S11323A0CF93DF93EC01892B51F00E94861060E0FB
S11323B0CE010E94E40E0E945111811102C00E94BC
S11323C03E07DF91CF91089507EA17E00F2EFFEC47
S11323D0EF2EF7E0FF2EF02D29C00E948610D801C1
S11323E0CC910E945111CC2309F10FB6F8940F92AD
S11323F0D8011596ED91FC911697C681D781CE012F
S113240002960E94720680919C07815080939C07DB
S11324108091A60781508093A6070F900FBE8F89E5
S1132420988D0E942B08CE010E942B088091A6074C
S11324308111D3CFF7018081823010F00E943E07D2
S11324400E940505F3CF009721F48091290890910B
S11324502A080FB6F8940F92FC0172A361A30F909F
S11324600FBE089580918F07882321F081E0809327
S11324709607089510929607E0912908F0912A088A
S113248081A10E94C70520919907822F90E0FC0149
S1132490EE0FFF1FEE0FFF1FEE0FFF1FE80FF91FD8
S11324A0E153F84F3081311111C02150822F90E057
S11324B0FC01EE0FFF1FEE0FFF1FEE0FFF1FE80FD3
S11324C0F91FE153F84F3081332379F3AC01440F02
S11324D0551F440F551F440F551F480F591FDA014C
S11324E0A153B84F1196ED91FC9112970280F3819C
S11324F0E02D1296FC93EE9311974E52584FE41729
S1132500F50729F442815381FD0152834183FC0183
S1132510EE0FFF1FEE0FFF1FEE0FFF1F8E0F9F1F0B
S1132520FC01E153F84F0180F281E02D868197810F
S113253090932A088093290820939907E091290809
S1132540F0912A0881A10E94BC050895CF93DF93DE
S1132550EB016091290870912A08645F7F4F0E9403
S1132560410661E0CE010E94E40EDF91CF9108950F
S11325700F931F93CF938B01C42F609129087091FF
S11325802A08645F7F4F0E942006CC2311F00FEFCE
S11325901FEF6C2FC8010E94E40ECF911F910F9181
S11325A008950F931F93CF93DF93DC011596ED915C
S11325B0FC911697C681D7818E01045F1F4FC80115
S11325C00E94720680918F0781111CC00A50110964
S11325D0C8010E9472068E8990919907981710F489
S11325E08093990790E09C01220F331F220F331F21
S11325F0220F331F820F931FB8018153984F0E94FB
S1132600200605C0B80180EB97E00E942006E09107
S11326102908F0912A089E898689891720F481E087
S11326208093960701C080E0DF91CF911F910F91B5
S1132630089520919507FC01208320919A073091F9
S11326409B073283218308950FB6F8940F9240912B
S11326509A0750919B07DB012D913C912F3FBFEFCF
S11326603B0719F1E0919507DC01FC91FE1739F065
S11326701196ED91FC9112974E175F07C0F4DC019F
S11326801196ED91FC911297DA01AE1BBF0BA217C4
S1132690B30778F4DB01E41BF50B2E0F3F1F2D93DA
S11326A03C930E94191380E005C080E003C081E0E0
S11326B001C081E00F900FBE089581E080939607DA
S11326C0089580919807882331F080918F0788239B
S11326D021F080E0089581E0089582E008950F9349
S11326E01F93CF93DF93FC01892B09F455C02689EE
S11326F0A0912908B0912A0856968C91281708F0C1
S11327004BC084859585992364F0A0912908B091E4
S11327102A0856963C918AE090E0831B910995879C
S1132720848730E0C901880F991F880F991F880F8B
S1132730991F280F391F2153384F8285938582179B
S1132740930719F58F01EF012296CE010E947206BC
S1132750E0912908F0912A088689F801868B9091E6
S11327609907981710F48093990790E09C01220F21
S1132770331F220F331F220F331F820F931FBE01FB
S11327808153984F0E94200607C0A0912908B09158
S11327902A0856968C91868BDF91CF911F910F91C9
S11327A008950F931F93CF93DF93FC01892B79F145
S11327B080A1815080A32689978D291751F1811119
S11327C02AC0EF018F010E5F1F4FC8010E947206DD
S11327D08F8D8E8B2AE030E0281B31093D872C87B2
S11327E090919907981710F48093990790E09C01B1
S11327F0220F331F220F331F220F331F820F931F09
S1132800B8018153984F0E94200681E005C080E002
S113281003C080E001C080E0DF91CF911F910F9150
S113282008958091290890912A08892B39F0E09124
S11328302908F0912A0880A18F5F80A3809129083C
S113284090912A080895FC0173836283918780879D
S11328504617570790F0421B530B848595854817FC
S11328605907E0F4BF016E5F7F4F8091310890916A
S113287032080E94410680E008954217530718F475
S11328806217730768F4BF016E5F7F4F809133084E
S1132890909134080E94410680E0089581E00895F3
S11328A081E008950FB6F8940F9280912F089091CB
S11328B03008892BE9F48EE398E00E940E0685E344
S11328C098E00E940E068EE398E09093340880937B
S11328D0330885E398E0909332088093310840E010
S11328E065E085E00E94930C9093300880932F0854
S11328F00F900FBE0895EF92FF920F930E9452140F
S113290080912F0890913008892B91F00F2EFDE2D1
S1132910EF2EF8E0FF2EF02D0FE020E030E048E24B
S113292050E065E971E087E895E10E943C0F01C041
S113293080E00F91FF90EF9008959F92AF92BF9225
S1132940CF92DF92EF92FF920F931F93CF93DF9377
S11329505C016B01942E790184E190E00E94F607FA
S1132960EC01892B79F00E945214B982A882DD8689
S1132970CC869E86F88AEF861A8B098BCE01029646
S11329800E941C06CE01DF91CF911F910F91FF9001
S1132990EF90DF90CF90BF90AF909F9008950F93EA
S11329A01F93CF93DF9300D000D01F92CDB7DEB733
S11329B0E0912F08F0913008309771F1D9016983C3
S11329C05B834A839D838C836630ECF40E9461139D
S11329D0823061F420E0A801BE016F5F7F4F8091D7
S11329E02F08909130080E94C60C17C020E040E0E8
S11329F050E0BE016F5F7F4F80912F0890913008A7
S1132A000E94C60C0AC020E0AD01BE016F5F7F4F7B
S1132A10CF010E948F0D01C080E00F900F900F90A6
S1132A200F900F90DF91CF911F910F910895AF9266
S1132A30BF92CF92DF92EF92FF920F931F93CF93A7
S1132A40DF936C010E948C107C0180912B08909183
S1132A502C08E816F90608F048C030C00580F68155
S1132A60E02DA080B180C681D7818E010E5F1F4FFB
S1132A70C8010E947206E989FA89CE0109958E85FA
S1132A808130E1F48C859D858A0D9B1DA816B906BD
S1132A9060F49B838A83D987C887B80180913308FF
S1132AA0909134080E94410609C000E010E020E043
S1132AB030E0A50160E0CE010E94CF14E09133081C
S1132AC0F091340880818111C9CF809131089091AF
S1132AD032089093340880933308F0933208E093DB
S1132AE0310881E0F601808302C0F6011082F09281
S1132AF02C08E0922B08C701DF91CF911F910F9111
S1132B00FF90EF90DF90CF90BF90AF900895CF9358
S1132B10DF9300D000D000D0CDB7DEB7CE01019650
S1132B204C0144244394D12CE12CF12C582EC92C73
S1132B30E0913308F09134088081882309F4C3C0FC
S1132B400580F681E02DA080B1800E948610C4012A
S1132B500E9417158C018981811147C00A151B0534
S1132B6098F10E945111E0913308F09134080580E6
S1132B70F681E02D66807780C30102960E9472067A
S1132B80D3011E968C911E978130B1F41C966D91E1
S1132B907C911D976A0D7B1D9501A801C3010E94BC
S1132BA02314882349F00D2D1E2D2D2D3E2DA50116
S1132BB06F2DC3010E94CF14D3015196ED91FC9166
S1132BC05297C301099571C04F2DB501601B710B5C
S1132BD080912F08909130080E94A80E0E945111F4
S1132BE0811163C00E943E0760C00E9451115DC004
S1132BF0898188230CF459C0AC80BD80F50182859D
S1132C009385892B21F0C50102960E947206CE019C
S1132C1006960E941715E9810E2FEE0F110B220B59
S1132C20330B0A30110508F040C0F801E25CFF4F95
S1132C300C9499162A813B81D5011C966D917C9147
S1132C401D97620F731FAC01C5010E9423148823D2
S1132C5061F1D5015196ED91FC915297C501099509
S1132C60F5018685813009F54A815B8184859585E6
S1132C70480F591F0D2D1E2D2D2D3E2D6F2DC501D5
S1132C800E94CF1412C06A817B81D5011D967C936A
S1132C906E931C97680F791F9C01AC01C5010E94BB
S1132CA0231403C0C5010E942B082F2D4D2D5E2D2A
S1132CB0652D7C2D80912F08909130080E94DC0DA9
S1132CC0811196CF35CF0E948610C4010E9417153A
S1132CD08C018981811189CFE0913108F09132080A
S1132CE0442D808181114F2DAD2CBE2C6ECFA1E2DD
S1132CF01A2EAA1BBB1BFD010DC0AA1FBB1FEE1F72
S1132D00FF1FA217B307E407F50720F0A21BB30BBC
S1132D10E40BF50B661F771F881F991F1A9469F738
S1132D2060957095809590959B01AC01BD01CF0194
S1132D300895EE0FFF1F0590F491E02D09940F9371
S1132D401F93CF93DF938230910510F482E090E0DB
S1132D50E0916208F091630820E030E0A0E0B0E088
S1132D60309719F140815181028113814817590725
S1132D70C8F08417950769F4109731F012960C93F4
S1132D80129713961C9327C000936208109363084C
S1132D9022C02115310519F04217530718F49A017E
S1132DA0BD01EF01DF01F801DBCF21153105F9F099
S1132DB0281B390B2430310580F48A819B816115ED
S1132DC0710521F0FB019383828304C0909363080F
S1132DD080936208FE01329644C0FE01E20FF31FA5
S1132DE08193919322503109398328833AC02091E9
S1132DF0600830916108232B41F420910201309145
S1132E000301309361082093600820910001309100
S1132E1001012115310541F42DB73EB7409104015C
S1132E2050910501241B350BE0916008F091610875
S1132E30E217F307A0F42E1B3F0B2817390778F08D
S1132E40AC014E5F5F4F2417350748F04E0F5F1FEC
S1132E5050936108409360088193919302C0E0E02D
S1132E60F0E0CF01DF91CF911F910F910895CF939F
S1132E70DF93009709F481C0FC0132971382128218
S1132E80A0916208B0916308109781F42081318188
S1132E90820F931F20916008309161082817390729
S1132EA051F5F0936108E093600867C0ED0120E0FC
S1132EB030E0CE17DF0740F44A815B819E01411563
S1132EC05105F1F0EA01F5CFD383C28340815181EA
S1132ED0840F951FC817D90759F488819981840FE5
S1132EE0951F0296918380838A819B819383828339
S1132EF02115310529F4F0936308E09362083DC07D
S1132F00E901FB83EA8349915991C40FD51FEC175A
S1132F10FD0761F480819181840F951F0296E90178
S1132F2099838883828193819B838A83E0E0F0E0A4
S1132F3012968D919C911397009719F0FD01DC0175
S1132F40F7CF8D919C9111979D012E5F3F4F820F7A
S1132F50931F20916008309161082817390769F49C
S1132F60309729F4109263081092620802C0138209
S1132F701282B0936108A0936008DF91CF91089505
S1132F80FB01DC0102C001900D9241505040D8F782
S1132F900895DC0101C06D9341505040E0F708955D
S1072FA0F894FFCFCF
S1132FA4000064082000C600CE00636865636B5F9C
S1132FB4636F6C6C6973696F6E735F7461736B00B8
S1132FC46A6F79737469636B5F7461736B006472A1
S1132FD461775F73686970735F7461736B006275A2
S1132FE46C6C6574735F7570646174655F7461732C
S1132FF46B00647261775F62756C6C6574735F7483
S113300461736B0054696D657220636F6C6C6973D2
S1133014696F6E730054696D657220636F6E7472A8
S11330246F6C6C65727320616E64206472617700E6
S111303449444C4500546D72205376630000ED
S9030000FC
